{
  "_format": "hh-sol-artifact-1",
  "contractName": "Inscrible",
  "sourceName": "contracts/Inscrible.sol",
  "abi": [
    {
      "inputs": [
        {
          "internalType": "address",
          "name": "following_key",
          "type": "address"
        }
      ],
      "name": "addFriend",
      "outputs": [],
      "stateMutability": "nonpayable",
      "type": "function"
    },
    {
      "inputs": [
        {
          "internalType": "string",
          "name": "_imgHash",
          "type": "string"
        },
        {
          "internalType": "string",
          "name": "desc",
          "type": "string"
        },
        {
          "internalType": "string",
          "name": "imgText",
          "type": "string"
        }
      ],
      "name": "addPostImage",
      "outputs": [],
      "stateMutability": "nonpayable",
      "type": "function"
    },
    {
      "inputs": [
        {
          "internalType": "address",
          "name": "me",
          "type": "address"
        },
        {
          "internalType": "address",
          "name": "following_key",
          "type": "address"
        }
      ],
      "name": "checkAlreadyFriends",
      "outputs": [
        {
          "internalType": "bool",
          "name": "",
          "type": "bool"
        }
      ],
      "stateMutability": "view",
      "type": "function"
    },
    {
      "inputs": [
        {
          "internalType": "address",
          "name": "key",
          "type": "address"
        }
      ],
      "name": "checkUser",
      "outputs": [
        {
          "internalType": "bool",
          "name": "",
          "type": "bool"
        }
      ],
      "stateMutability": "view",
      "type": "function"
    },
    {
      "inputs": [
        {
          "internalType": "string",
          "name": "_username",
          "type": "string"
        }
      ],
      "name": "createAccount",
      "outputs": [],
      "stateMutability": "nonpayable",
      "type": "function"
    },
    {
      "inputs": [],
      "name": "getAllAppUser",
      "outputs": [
        {
          "components": [
            {
              "internalType": "string",
              "name": "username",
              "type": "string"
            },
            {
              "internalType": "address",
              "name": "accountAddress",
              "type": "address"
            }
          ],
          "internalType": "struct Inscrible.AllUserStruck[]",
          "name": "",
          "type": "tuple[]"
        }
      ],
      "stateMutability": "view",
      "type": "function"
    },
    {
      "inputs": [],
      "name": "getAllPosts",
      "outputs": [
        {
          "components": [
            {
              "internalType": "string",
              "name": "createrName",
              "type": "string"
            },
            {
              "internalType": "address payable",
              "name": "userAddress",
              "type": "address"
            },
            {
              "internalType": "string",
              "name": "imageHash",
              "type": "string"
            },
            {
              "internalType": "string",
              "name": "caption",
              "type": "string"
            },
            {
              "internalType": "string",
              "name": "imageText",
              "type": "string"
            },
            {
              "internalType": "uint256",
              "name": "tipAmount",
              "type": "uint256"
            },
            {
              "internalType": "uint256",
              "name": "id",
              "type": "uint256"
            },
            {
              "internalType": "uint256",
              "name": "likeCount",
              "type": "uint256"
            },
            {
              "internalType": "string[]",
              "name": "likedByUser",
              "type": "string[]"
            }
          ],
          "internalType": "struct Inscrible.Post[]",
          "name": "",
          "type": "tuple[]"
        }
      ],
      "stateMutability": "view",
      "type": "function"
    },
    {
      "inputs": [
        {
          "internalType": "address",
          "name": "_user",
          "type": "address"
        }
      ],
      "name": "getMyFollowersList",
      "outputs": [
        {
          "components": [
            {
              "internalType": "address",
              "name": "pubkey",
              "type": "address"
            },
            {
              "internalType": "string",
              "name": "name",
              "type": "string"
            }
          ],
          "internalType": "struct Inscrible.friend[]",
          "name": "",
          "type": "tuple[]"
        }
      ],
      "stateMutability": "view",
      "type": "function"
    },
    {
      "inputs": [
        {
          "internalType": "address",
          "name": "_user",
          "type": "address"
        }
      ],
      "name": "getMyFollowingsList",
      "outputs": [
        {
          "components": [
            {
              "internalType": "address",
              "name": "pubkey",
              "type": "address"
            },
            {
              "internalType": "string",
              "name": "name",
              "type": "string"
            }
          ],
          "internalType": "struct Inscrible.friend[]",
          "name": "",
          "type": "tuple[]"
        }
      ],
      "stateMutability": "view",
      "type": "function"
    },
    {
      "inputs": [
        {
          "internalType": "address",
          "name": "_user",
          "type": "address"
        }
      ],
      "name": "getMyProfilePost",
      "outputs": [
        {
          "components": [
            {
              "internalType": "string",
              "name": "createrName",
              "type": "string"
            },
            {
              "internalType": "address payable",
              "name": "userAddress",
              "type": "address"
            },
            {
              "internalType": "string",
              "name": "imageHash",
              "type": "string"
            },
            {
              "internalType": "string",
              "name": "caption",
              "type": "string"
            },
            {
              "internalType": "string",
              "name": "imageText",
              "type": "string"
            },
            {
              "internalType": "uint256",
              "name": "tipAmount",
              "type": "uint256"
            },
            {
              "internalType": "uint256",
              "name": "id",
              "type": "uint256"
            },
            {
              "internalType": "uint256",
              "name": "likeCount",
              "type": "uint256"
            },
            {
              "internalType": "string[]",
              "name": "likedByUser",
              "type": "string[]"
            }
          ],
          "internalType": "struct Inscrible.Post[]",
          "name": "",
          "type": "tuple[]"
        }
      ],
      "stateMutability": "view",
      "type": "function"
    },
    {
      "inputs": [
        {
          "internalType": "address",
          "name": "key",
          "type": "address"
        }
      ],
      "name": "getSingleUserLatestPost",
      "outputs": [
        {
          "components": [
            {
              "internalType": "string",
              "name": "createrName",
              "type": "string"
            },
            {
              "internalType": "address payable",
              "name": "userAddress",
              "type": "address"
            },
            {
              "internalType": "string",
              "name": "imageHash",
              "type": "string"
            },
            {
              "internalType": "string",
              "name": "caption",
              "type": "string"
            },
            {
              "internalType": "string",
              "name": "imageText",
              "type": "string"
            },
            {
              "internalType": "uint256",
              "name": "tipAmount",
              "type": "uint256"
            },
            {
              "internalType": "uint256",
              "name": "id",
              "type": "uint256"
            },
            {
              "internalType": "uint256",
              "name": "likeCount",
              "type": "uint256"
            },
            {
              "internalType": "string[]",
              "name": "likedByUser",
              "type": "string[]"
            }
          ],
          "internalType": "struct Inscrible.Post",
          "name": "",
          "type": "tuple"
        }
      ],
      "stateMutability": "view",
      "type": "function"
    },
    {
      "inputs": [
        {
          "internalType": "address",
          "name": "key",
          "type": "address"
        }
      ],
      "name": "getSingleUserPost",
      "outputs": [
        {
          "components": [
            {
              "internalType": "string",
              "name": "createrName",
              "type": "string"
            },
            {
              "internalType": "address payable",
              "name": "userAddress",
              "type": "address"
            },
            {
              "internalType": "string",
              "name": "imageHash",
              "type": "string"
            },
            {
              "internalType": "string",
              "name": "caption",
              "type": "string"
            },
            {
              "internalType": "string",
              "name": "imageText",
              "type": "string"
            },
            {
              "internalType": "uint256",
              "name": "tipAmount",
              "type": "uint256"
            },
            {
              "internalType": "uint256",
              "name": "id",
              "type": "uint256"
            },
            {
              "internalType": "uint256",
              "name": "likeCount",
              "type": "uint256"
            },
            {
              "internalType": "string[]",
              "name": "likedByUser",
              "type": "string[]"
            }
          ],
          "internalType": "struct Inscrible.Post[]",
          "name": "",
          "type": "tuple[]"
        }
      ],
      "stateMutability": "view",
      "type": "function"
    },
    {
      "inputs": [
        {
          "internalType": "address",
          "name": "key",
          "type": "address"
        }
      ],
      "name": "getUsername",
      "outputs": [
        {
          "internalType": "string",
          "name": "",
          "type": "string"
        }
      ],
      "stateMutability": "view",
      "type": "function"
    },
    {
      "inputs": [
        {
          "internalType": "address",
          "name": "followerAddress",
          "type": "address"
        }
      ],
      "name": "removeFollower",
      "outputs": [],
      "stateMutability": "nonpayable",
      "type": "function"
    },
    {
      "inputs": [
        {
          "internalType": "address",
          "name": "followingAddress",
          "type": "address"
        }
      ],
      "name": "removeFriend",
      "outputs": [],
      "stateMutability": "nonpayable",
      "type": "function"
    },
    {
      "stateMutability": "payable",
      "type": "receive"
    }
  ],
  "bytecode": "0x6080604052600060015534801561001557600080fd5b50614b8d806100256000396000f3fe6080604052600436106100ec5760003560e01c806373fc70b01161008a578063b9a4134f11610059578063b9a4134f14610323578063ce43c03214610360578063d7a1cfe11461039d578063f1114398146103c6576100f3565b806373fc70b01461025557806380cee8a514610292578063a24d41de146102bb578063aed84e7b146102e6576100f3565b806330561100116100c6578063305611001461019b578063308837ed146101c657806359737a54146101ef578063734ee8e514610218576100f3565b80631e9d48cf146100f8578063298daf5b146101355780632e2176f61461015e576100f3565b366100f357005b600080fd5b34801561010457600080fd5b5061011f600480360381019061011a9190613c8c565b610403565b60405161012c9190613cd4565b60405180910390f35b34801561014157600080fd5b5061015c60048036038101906101579190613d54565b610475565b005b34801561016a57600080fd5b5061018560048036038101906101809190613c8c565b610660565b60405161019291906140d9565b60405180910390f35b3480156101a757600080fd5b506101b0610a97565b6040516101bd91906140d9565b60405180910390f35b3480156101d257600080fd5b506101ed60048036038101906101e89190613c8c565b610e8c565b005b3480156101fb57600080fd5b506102166004803603810190610211919061422b565b611589565b005b34801561022457600080fd5b5061023f600480360381019061023a9190613c8c565b611daa565b60405161024c91906143b3565b60405180910390f35b34801561026157600080fd5b5061027c60048036038101906102779190613c8c565b612207565b60405161028991906144e3565b60405180910390f35b34801561029e57600080fd5b506102b960048036038101906102b49190613c8c565b612390565b005b3480156102c757600080fd5b506102d0612a8d565b6040516102dd9190614604565b60405180910390f35b3480156102f257600080fd5b5061030d60048036038101906103089190613c8c565b612bd4565b60405161031a91906144e3565b60405180910390f35b34801561032f57600080fd5b5061034a60048036038101906103459190614626565b612d5d565b6040516103579190613cd4565b60405180910390f35b34801561036c57600080fd5b5061038760048036038101906103829190613c8c565b612e94565b60405161039491906146b0565b60405180910390f35b3480156103a957600080fd5b506103c460048036038101906103bf9190613c8c565b612f68565b005b3480156103d257600080fd5b506103ed60048036038101906103e89190613c8c565b61318f565b6040516103fa91906140d9565b60405180910390f35b600080600080549050111561046b576000600260008473ffffffffffffffffffffffffffffffffffffffff1673ffffffffffffffffffffffffffffffffffffffff168152602001908152602001600020600001805461046190614701565b9050119050610470565b600090505b919050565b6000151561048233610403565b1515146104c4576040517f08c379a00000000000000000000000000000000000000000000000000000000081526004016104bb9061477f565b60405180910390fd5b6000828290501161050a576040517f08c379a0000000000000000000000000000000000000000000000000000000008152600401610501906147eb565b60405180910390fd5b8181600260003373ffffffffffffffffffffffffffffffffffffffff1673ffffffffffffffffffffffffffffffffffffffff168152602001908152602001600020600001919061055b92919061393e565b506000604051806040016040528084848080601f016020809104026020016040519081016040528093929190818152602001838380828437600081840152601f19601f8201169050808301925050505050505081526020013373ffffffffffffffffffffffffffffffffffffffff16815250908060018154018082558091505060019003906000526020600020906002020160009091909190915060008201518160000190805190602001906106129291906139c4565b5060208201518160010160006101000a81548173ffffffffffffffffffffffffffffffffffffffff021916908373ffffffffffffffffffffffffffffffffffffffff16021790555050505050565b6060600260008373ffffffffffffffffffffffffffffffffffffffff1673ffffffffffffffffffffffffffffffffffffffff168152602001908152602001600020600301805480602002602001604051908101604052809291908181526020016000905b82821015610a8c5783829060005260206000209060090201604051806101200160405290816000820180546106f890614701565b80601f016020809104026020016040519081016040528092919081815260200182805461072490614701565b80156107715780601f1061074657610100808354040283529160200191610771565b820191906000526020600020905b81548152906001019060200180831161075457829003601f168201915b505050505081526020016001820160009054906101000a900473ffffffffffffffffffffffffffffffffffffffff1673ffffffffffffffffffffffffffffffffffffffff1673ffffffffffffffffffffffffffffffffffffffff1681526020016002820180546107e090614701565b80601f016020809104026020016040519081016040528092919081815260200182805461080c90614701565b80156108595780601f1061082e57610100808354040283529160200191610859565b820191906000526020600020905b81548152906001019060200180831161083c57829003601f168201915b5050505050815260200160038201805461087290614701565b80601f016020809104026020016040519081016040528092919081815260200182805461089e90614701565b80156108eb5780601f106108c0576101008083540402835291602001916108eb565b820191906000526020600020905b8154815290600101906020018083116108ce57829003601f168201915b5050505050815260200160048201805461090490614701565b80601f016020809104026020016040519081016040528092919081815260200182805461093090614701565b801561097d5780601f106109525761010080835404028352916020019161097d565b820191906000526020600020905b81548152906001019060200180831161096057829003601f168201915b5050505050815260200160058201548152602001600682015481526020016007820154815260200160088201805480602002602001604051908101604052809291908181526020016000905b82821015610a755783829060005260206000200180546109e890614701565b80601f0160208091040260200160405190810160405280929190818152602001828054610a1490614701565b8015610a615780601f10610a3657610100808354040283529160200191610a61565b820191906000526020600020905b815481529060010190602001808311610a4457829003601f168201915b5050505050815260200190600101906109c9565b5050505081525050815260200190600101906106c4565b505050509050919050565b60606004805480602002602001604051908101604052809291908181526020016000905b82821015610e83578382906000526020600020906009020160405180610120016040529081600082018054610aef90614701565b80601f0160208091040260200160405190810160405280929190818152602001828054610b1b90614701565b8015610b685780601f10610b3d57610100808354040283529160200191610b68565b820191906000526020600020905b815481529060010190602001808311610b4b57829003601f168201915b505050505081526020016001820160009054906101000a900473ffffffffffffffffffffffffffffffffffffffff1673ffffffffffffffffffffffffffffffffffffffff1673ffffffffffffffffffffffffffffffffffffffff168152602001600282018054610bd790614701565b80601f0160208091040260200160405190810160405280929190818152602001828054610c0390614701565b8015610c505780601f10610c2557610100808354040283529160200191610c50565b820191906000526020600020905b815481529060010190602001808311610c3357829003601f168201915b50505050508152602001600382018054610c6990614701565b80601f0160208091040260200160405190810160405280929190818152602001828054610c9590614701565b8015610ce25780601f10610cb757610100808354040283529160200191610ce2565b820191906000526020600020905b815481529060010190602001808311610cc557829003601f168201915b50505050508152602001600482018054610cfb90614701565b80601f0160208091040260200160405190810160405280929190818152602001828054610d2790614701565b8015610d745780601f10610d4957610100808354040283529160200191610d74565b820191906000526020600020905b815481529060010190602001808311610d5757829003601f168201915b5050505050815260200160058201548152602001600682015481526020016007820154815260200160088201805480602002602001604051908101604052809291908181526020016000905b82821015610e6c578382906000526020600020018054610ddf90614701565b80601f0160208091040260200160405190810160405280929190818152602001828054610e0b90614701565b8015610e585780601f10610e2d57610100808354040283529160200191610e58565b820191906000526020600020905b815481529060010190602001808311610e3b57829003601f168201915b505050505081526020019060010190610dc0565b505050508152505081526020019060010190610abb565b50505050905090565b6000806000905060005b600260003373ffffffffffffffffffffffffffffffffffffffff1673ffffffffffffffffffffffffffffffffffffffff16815260200190815260200160002060010180549050811015610fbb578373ffffffffffffffffffffffffffffffffffffffff16600260003373ffffffffffffffffffffffffffffffffffffffff1673ffffffffffffffffffffffffffffffffffffffff1681526020019081526020016000206001018281548110610f4e57610f4d61480b565b5b906000526020600020906002020160000160009054906101000a900473ffffffffffffffffffffffffffffffffffffffff1673ffffffffffffffffffffffffffffffffffffffff161415610fa85780925060019150610fbb565b8080610fb390614869565b915050610e96565b50801561120457600260003373ffffffffffffffffffffffffffffffffffffffff1673ffffffffffffffffffffffffffffffffffffffff1681526020019081526020016000206001016001600260003373ffffffffffffffffffffffffffffffffffffffff1673ffffffffffffffffffffffffffffffffffffffff1681526020019081526020016000206001018054905061105691906148b2565b815481106110675761106661480b565b5b9060005260206000209060020201600260003373ffffffffffffffffffffffffffffffffffffffff1673ffffffffffffffffffffffffffffffffffffffff16815260200190815260200160002060010183815481106110c9576110c861480b565b5b90600052602060002090600202016000820160009054906101000a900473ffffffffffffffffffffffffffffffffffffffff168160000160006101000a81548173ffffffffffffffffffffffffffffffffffffffff021916908373ffffffffffffffffffffffffffffffffffffffff160217905550600182018160010190805461115290614701565b61115d929190613a4a565b50905050600260003373ffffffffffffffffffffffffffffffffffffffff1673ffffffffffffffffffffffffffffffffffffffff1681526020019081526020016000206001018054806111b3576111b26148e6565b5b6001900381819060005260206000209060020201600080820160006101000a81549073ffffffffffffffffffffffffffffffffffffffff02191690556001820160006111ff9190613ad7565b505090555b6000806000905060005b600260008773ffffffffffffffffffffffffffffffffffffffff1673ffffffffffffffffffffffffffffffffffffffff16815260200190815260200160002060020180549050811015611333573373ffffffffffffffffffffffffffffffffffffffff16600260008873ffffffffffffffffffffffffffffffffffffffff1673ffffffffffffffffffffffffffffffffffffffff16815260200190815260200160002060020182815481106112c6576112c561480b565b5b906000526020600020906002020160000160009054906101000a900473ffffffffffffffffffffffffffffffffffffffff1673ffffffffffffffffffffffffffffffffffffffff1614156113205780925060019150611333565b808061132b90614869565b91505061120e565b508015611582576000600260008773ffffffffffffffffffffffffffffffffffffffff1673ffffffffffffffffffffffffffffffffffffffff168152602001908152602001600020600201805490509050600260008773ffffffffffffffffffffffffffffffffffffffff1673ffffffffffffffffffffffffffffffffffffffff1681526020019081526020016000206002016001826113d391906148b2565b815481106113e4576113e361480b565b5b9060005260206000209060020201600260008873ffffffffffffffffffffffffffffffffffffffff1673ffffffffffffffffffffffffffffffffffffffff16815260200190815260200160002060020184815481106114465761144561480b565b5b90600052602060002090600202016000820160009054906101000a900473ffffffffffffffffffffffffffffffffffffffff168160000160006101000a81548173ffffffffffffffffffffffffffffffffffffffff021916908373ffffffffffffffffffffffffffffffffffffffff16021790555060018201816001019080546114cf90614701565b6114da929190613a4a565b50905050600260008773ffffffffffffffffffffffffffffffffffffffff1673ffffffffffffffffffffffffffffffffffffffff1681526020019081526020016000206002018054806115305761152f6148e6565b5b6001900381819060005260206000209060020201600080820160006101000a81549073ffffffffffffffffffffffffffffffffffffffff021916905560018201600061157c9190613ad7565b50509055505b5050505050565b61159233610403565b6115d1576040517f08c379a00000000000000000000000000000000000000000000000000000000081526004016115c890614961565b60405180910390fd5b60008351116115df57600080fd5b600160008154809291906115f290614869565b91905055506000604051806101200160405280600260003373ffffffffffffffffffffffffffffffffffffffff1673ffffffffffffffffffffffffffffffffffffffff168152602001908152602001600020600001805461165290614701565b80601f016020809104026020016040519081016040528092919081815260200182805461167e90614701565b80156116cb5780601f106116a0576101008083540402835291602001916116cb565b820191906000526020600020905b8154815290600101906020018083116116ae57829003601f168201915b505050505081526020013373ffffffffffffffffffffffffffffffffffffffff16815260200185815260200184815260200183815260200160008152602001600154815260200160008152602001600067ffffffffffffffff81111561173457611733614100565b5b60405190808252806020026020018201604052801561176757816020015b60608152602001906001900390816117525790505b50815250905060005b600260003373ffffffffffffffffffffffffffffffffffffffff1673ffffffffffffffffffffffffffffffffffffffff168152602001908152602001600020600101805490508110156119b75760036000600260003373ffffffffffffffffffffffffffffffffffffffff1673ffffffffffffffffffffffffffffffffffffffff16815260200190815260200160002060010183815481106118155761181461480b565b5b906000526020600020906002020160000160009054906101000a900473ffffffffffffffffffffffffffffffffffffffff1673ffffffffffffffffffffffffffffffffffffffff1673ffffffffffffffffffffffffffffffffffffffff16815260200190815260200160002082908060018154018082558091505060019003906000526020600020906009020160009091909190915060008201518160000190805190602001906118c79291906139c4565b5060208201518160010160006101000a81548173ffffffffffffffffffffffffffffffffffffffff021916908373ffffffffffffffffffffffffffffffffffffffff160217905550604082015181600201908051906020019061192b9291906139c4565b5060608201518160030190805190602001906119489291906139c4565b5060808201518160040190805190602001906119659291906139c4565b5060a0820151816005015560c0820151816006015560e082015181600701556101008201518160080190805190602001906119a1929190613b17565b50505080806119af90614869565b915050611770565b50600260003373ffffffffffffffffffffffffffffffffffffffff1673ffffffffffffffffffffffffffffffffffffffff1681526020019081526020016000206003018190806001815401808255809150506001900390600052602060002090600902016000909190919091506000820151816000019080519060200190611a409291906139c4565b5060208201518160010160006101000a81548173ffffffffffffffffffffffffffffffffffffffff021916908373ffffffffffffffffffffffffffffffffffffffff1602179055506040820151816002019080519060200190611aa49291906139c4565b506060820151816003019080519060200190611ac19291906139c4565b506080820151816004019080519060200190611ade9291906139c4565b5060a0820151816005015560c0820151816006015560e08201518160070155610100820151816008019080519060200190611b1a929190613b17565b505050600360003373ffffffffffffffffffffffffffffffffffffffff1673ffffffffffffffffffffffffffffffffffffffff1681526020019081526020016000208190806001815401808255809150506001900390600052602060002090600902016000909190919091506000820151816000019080519060200190611ba29291906139c4565b5060208201518160010160006101000a81548173ffffffffffffffffffffffffffffffffffffffff021916908373ffffffffffffffffffffffffffffffffffffffff1602179055506040820151816002019080519060200190611c069291906139c4565b506060820151816003019080519060200190611c239291906139c4565b506080820151816004019080519060200190611c409291906139c4565b5060a0820151816005015560c0820151816006015560e08201518160070155610100820151816008019080519060200190611c7c929190613b17565b50505060048190806001815401808255809150506001900390600052602060002090600902016000909190919091506000820151816000019080519060200190611cc79291906139c4565b5060208201518160010160006101000a81548173ffffffffffffffffffffffffffffffffffffffff021916908373ffffffffffffffffffffffffffffffffffffffff1602179055506040820151816002019080519060200190611d2b9291906139c4565b506060820151816003019080519060200190611d489291906139c4565b506080820151816004019080519060200190611d659291906139c4565b5060a0820151816005015560c0820151816006015560e08201518160070155610100820151816008019080519060200190611da1929190613b17565b50505050505050565b611db2613b77565b600360008373ffffffffffffffffffffffffffffffffffffffff1673ffffffffffffffffffffffffffffffffffffffff1681526020019081526020016000206001600360008573ffffffffffffffffffffffffffffffffffffffff1673ffffffffffffffffffffffffffffffffffffffff16815260200190815260200160002080549050611e4091906148b2565b81548110611e5157611e5061480b565b5b906000526020600020906009020160405180610120016040529081600082018054611e7b90614701565b80601f0160208091040260200160405190810160405280929190818152602001828054611ea790614701565b8015611ef45780601f10611ec957610100808354040283529160200191611ef4565b820191906000526020600020905b815481529060010190602001808311611ed757829003601f168201915b505050505081526020016001820160009054906101000a900473ffffffffffffffffffffffffffffffffffffffff1673ffffffffffffffffffffffffffffffffffffffff1673ffffffffffffffffffffffffffffffffffffffff168152602001600282018054611f6390614701565b80601f0160208091040260200160405190810160405280929190818152602001828054611f8f90614701565b8015611fdc5780601f10611fb157610100808354040283529160200191611fdc565b820191906000526020600020905b815481529060010190602001808311611fbf57829003601f168201915b50505050508152602001600382018054611ff590614701565b80601f016020809104026020016040519081016040528092919081815260200182805461202190614701565b801561206e5780601f106120435761010080835404028352916020019161206e565b820191906000526020600020905b81548152906001019060200180831161205157829003601f168201915b5050505050815260200160048201805461208790614701565b80601f01602080910402602001604051908101604052809291908181526020018280546120b390614701565b80156121005780601f106120d557610100808354040283529160200191612100565b820191906000526020600020905b8154815290600101906020018083116120e357829003601f168201915b5050505050815260200160058201548152602001600682015481526020016007820154815260200160088201805480602002602001604051908101604052809291908181526020016000905b828210156121f857838290600052602060002001805461216b90614701565b80601f016020809104026020016040519081016040528092919081815260200182805461219790614701565b80156121e45780601f106121b9576101008083540402835291602001916121e4565b820191906000526020600020905b8154815290600101906020018083116121c757829003601f168201915b50505050508152602001906001019061214c565b50505050815250509050919050565b6060600260008373ffffffffffffffffffffffffffffffffffffffff1673ffffffffffffffffffffffffffffffffffffffff168152602001908152602001600020600101805480602002602001604051908101604052809291908181526020016000905b8282101561238557838290600052602060002090600202016040518060400160405290816000820160009054906101000a900473ffffffffffffffffffffffffffffffffffffffff1673ffffffffffffffffffffffffffffffffffffffff1673ffffffffffffffffffffffffffffffffffffffff1681526020016001820180546122f490614701565b80601f016020809104026020016040519081016040528092919081815260200182805461232090614701565b801561236d5780601f106123425761010080835404028352916020019161236d565b820191906000526020600020905b81548152906001019060200180831161235057829003601f168201915b5050505050815250508152602001906001019061226b565b505050509050919050565b6000806000905060005b600260008573ffffffffffffffffffffffffffffffffffffffff1673ffffffffffffffffffffffffffffffffffffffff168152602001908152602001600020600101805490508110156124bf573373ffffffffffffffffffffffffffffffffffffffff16600260008673ffffffffffffffffffffffffffffffffffffffff1673ffffffffffffffffffffffffffffffffffffffff16815260200190815260200160002060010182815481106124525761245161480b565b5b906000526020600020906002020160000160009054906101000a900473ffffffffffffffffffffffffffffffffffffffff1673ffffffffffffffffffffffffffffffffffffffff1614156124ac57809250600191506124bf565b80806124b790614869565b91505061239a565b50801561270857600260008473ffffffffffffffffffffffffffffffffffffffff1673ffffffffffffffffffffffffffffffffffffffff1681526020019081526020016000206001016001600260008673ffffffffffffffffffffffffffffffffffffffff1673ffffffffffffffffffffffffffffffffffffffff1681526020019081526020016000206001018054905061255a91906148b2565b8154811061256b5761256a61480b565b5b9060005260206000209060020201600260008573ffffffffffffffffffffffffffffffffffffffff1673ffffffffffffffffffffffffffffffffffffffff16815260200190815260200160002060010183815481106125cd576125cc61480b565b5b90600052602060002090600202016000820160009054906101000a900473ffffffffffffffffffffffffffffffffffffffff168160000160006101000a81548173ffffffffffffffffffffffffffffffffffffffff021916908373ffffffffffffffffffffffffffffffffffffffff160217905550600182018160010190805461265690614701565b612661929190613a4a565b50905050600260008473ffffffffffffffffffffffffffffffffffffffff1673ffffffffffffffffffffffffffffffffffffffff1681526020019081526020016000206001018054806126b7576126b66148e6565b5b6001900381819060005260206000209060020201600080820160006101000a81549073ffffffffffffffffffffffffffffffffffffffff02191690556001820160006127039190613ad7565b505090555b6000806000905060005b600260003373ffffffffffffffffffffffffffffffffffffffff1673ffffffffffffffffffffffffffffffffffffffff16815260200190815260200160002060020180549050811015612837578573ffffffffffffffffffffffffffffffffffffffff16600260003373ffffffffffffffffffffffffffffffffffffffff1673ffffffffffffffffffffffffffffffffffffffff16815260200190815260200160002060020182815481106127ca576127c961480b565b5b906000526020600020906002020160000160009054906101000a900473ffffffffffffffffffffffffffffffffffffffff1673ffffffffffffffffffffffffffffffffffffffff1614156128245780925060019150612837565b808061282f90614869565b915050612712565b508015612a86576000600260003373ffffffffffffffffffffffffffffffffffffffff1673ffffffffffffffffffffffffffffffffffffffff168152602001908152602001600020600201805490509050600260003373ffffffffffffffffffffffffffffffffffffffff1673ffffffffffffffffffffffffffffffffffffffff1681526020019081526020016000206002016001826128d791906148b2565b815481106128e8576128e761480b565b5b9060005260206000209060020201600260003373ffffffffffffffffffffffffffffffffffffffff1673ffffffffffffffffffffffffffffffffffffffff168152602001908152602001600020600201848154811061294a5761294961480b565b5b90600052602060002090600202016000820160009054906101000a900473ffffffffffffffffffffffffffffffffffffffff168160000160006101000a81548173ffffffffffffffffffffffffffffffffffffffff021916908373ffffffffffffffffffffffffffffffffffffffff16021790555060018201816001019080546129d390614701565b6129de929190613a4a565b50905050600260003373ffffffffffffffffffffffffffffffffffffffff1673ffffffffffffffffffffffffffffffffffffffff168152602001908152602001600020600201805480612a3457612a336148e6565b5b6001900381819060005260206000209060020201600080820160006101000a81549073ffffffffffffffffffffffffffffffffffffffff0219169055600182016000612a809190613ad7565b50509055505b5050505050565b60606000805480602002602001604051908101604052809291908181526020016000905b82821015612bcb5783829060005260206000209060020201604051806040016040529081600082018054612ae490614701565b80601f0160208091040260200160405190810160405280929190818152602001828054612b1090614701565b8015612b5d5780601f10612b3257610100808354040283529160200191612b5d565b820191906000526020600020905b815481529060010190602001808311612b4057829003601f168201915b505050505081526020016001820160009054906101000a900473ffffffffffffffffffffffffffffffffffffffff1673ffffffffffffffffffffffffffffffffffffffff1673ffffffffffffffffffffffffffffffffffffffff168152505081526020019060010190612ab1565b50505050905090565b6060600260008373ffffffffffffffffffffffffffffffffffffffff1673ffffffffffffffffffffffffffffffffffffffff168152602001908152602001600020600201805480602002602001604051908101604052809291908181526020016000905b82821015612d5257838290600052602060002090600202016040518060400160405290816000820160009054906101000a900473ffffffffffffffffffffffffffffffffffffffff1673ffffffffffffffffffffffffffffffffffffffff1673ffffffffffffffffffffffffffffffffffffffff168152602001600182018054612cc190614701565b80601f0160208091040260200160405190810160405280929190818152602001828054612ced90614701565b8015612d3a5780601f10612d0f57610100808354040283529160200191612d3a565b820191906000526020600020905b815481529060010190602001808311612d1d57829003601f168201915b50505050508152505081526020019060010190612c38565b505050509050919050565b600080600090505b600260008473ffffffffffffffffffffffffffffffffffffffff1673ffffffffffffffffffffffffffffffffffffffff16815260200190815260200160002060010180549050811015612e88578373ffffffffffffffffffffffffffffffffffffffff16600260008573ffffffffffffffffffffffffffffffffffffffff1673ffffffffffffffffffffffffffffffffffffffff1681526020019081526020016000206001018281548110612e1d57612e1c61480b565b5b906000526020600020906002020160000160009054906101000a900473ffffffffffffffffffffffffffffffffffffffff1673ffffffffffffffffffffffffffffffffffffffff161415612e75576001915050612e8e565b8080612e8090614869565b915050612d65565b50600090505b92915050565b6060600260008373ffffffffffffffffffffffffffffffffffffffff1673ffffffffffffffffffffffffffffffffffffffff1681526020019081526020016000206000018054612ee390614701565b80601f0160208091040260200160405190810160405280929190818152602001828054612f0f90614701565b8015612f5c5780601f10612f3157610100808354040283529160200191612f5c565b820191906000526020600020905b815481529060010190602001808311612f3f57829003601f168201915b50505050509050919050565b612f7133610403565b612fb0576040517f08c379a0000000000000000000000000000000000000000000000000000000008152600401612fa7906149cd565b60405180910390fd5b612fb981610403565b612ff8576040517f08c379a0000000000000000000000000000000000000000000000000000000008152600401612fef90614a39565b60405180910390fd5b8073ffffffffffffffffffffffffffffffffffffffff163373ffffffffffffffffffffffffffffffffffffffff161415613067576040517f08c379a000000000000000000000000000000000000000000000000000000000815260040161305e90614acb565b60405180910390fd5b600015156130753383612d5d565b1515146130b7576040517f08c379a00000000000000000000000000000000000000000000000000000000081526004016130ae90614b37565b60405180910390fd5b61318c8133600260003373ffffffffffffffffffffffffffffffffffffffff1673ffffffffffffffffffffffffffffffffffffffff168152602001908152602001600020600001805461310990614701565b80601f016020809104026020016040519081016040528092919081815260200182805461313590614701565b80156131825780601f1061315757610100808354040283529160200191613182565b820191906000526020600020905b81548152906001019060200180831161316557829003601f168201915b505050505061366b565b50565b60606000600360008473ffffffffffffffffffffffffffffffffffffffff1673ffffffffffffffffffffffffffffffffffffffff16815260200190815260200160002080549050111561360e57600360008373ffffffffffffffffffffffffffffffffffffffff1673ffffffffffffffffffffffffffffffffffffffff168152602001908152602001600020805480602002602001604051908101604052809291908181526020016000905b8282101561360357838290600052602060002090600902016040518061012001604052908160008201805461326f90614701565b80601f016020809104026020016040519081016040528092919081815260200182805461329b90614701565b80156132e85780601f106132bd576101008083540402835291602001916132e8565b820191906000526020600020905b8154815290600101906020018083116132cb57829003601f168201915b505050505081526020016001820160009054906101000a900473ffffffffffffffffffffffffffffffffffffffff1673ffffffffffffffffffffffffffffffffffffffff1673ffffffffffffffffffffffffffffffffffffffff16815260200160028201805461335790614701565b80601f016020809104026020016040519081016040528092919081815260200182805461338390614701565b80156133d05780601f106133a5576101008083540402835291602001916133d0565b820191906000526020600020905b8154815290600101906020018083116133b357829003601f168201915b505050505081526020016003820180546133e990614701565b80601f016020809104026020016040519081016040528092919081815260200182805461341590614701565b80156134625780601f1061343757610100808354040283529160200191613462565b820191906000526020600020905b81548152906001019060200180831161344557829003601f168201915b5050505050815260200160048201805461347b90614701565b80601f01602080910402602001604051908101604052809291908181526020018280546134a790614701565b80156134f45780601f106134c9576101008083540402835291602001916134f4565b820191906000526020600020905b8154815290600101906020018083116134d757829003601f168201915b5050505050815260200160058201548152602001600682015481526020016007820154815260200160088201805480602002602001604051908101604052809291908181526020016000905b828210156135ec57838290600052602060002001805461355f90614701565b80601f016020809104026020016040519081016040528092919081815260200182805461358b90614701565b80156135d85780601f106135ad576101008083540402835291602001916135d8565b820191906000526020600020905b8154815290600101906020018083116135bb57829003601f168201915b505050505081526020019060010190613540565b50505050815250508152602001906001019061323b565b505050509050613666565b600067ffffffffffffffff81111561362957613628614100565b5b60405190808252806020026020018201604052801561366257816020015b61364f613b77565b8152602001906001900390816136475790505b5090505b919050565b600060405180604001604052808473ffffffffffffffffffffffffffffffffffffffff168152602001838152509050600260008573ffffffffffffffffffffffffffffffffffffffff1673ffffffffffffffffffffffffffffffffffffffff16815260200190815260200160002060010181908060018154018082558091505060019003906000526020600020906002020160009091909190915060008201518160000160006101000a81548173ffffffffffffffffffffffffffffffffffffffff021916908373ffffffffffffffffffffffffffffffffffffffff16021790555060208201518160010190805190602001906137699291906139c4565b505050600060405180604001604052808673ffffffffffffffffffffffffffffffffffffffff168152602001600260008873ffffffffffffffffffffffffffffffffffffffff1673ffffffffffffffffffffffffffffffffffffffff16815260200190815260200160002060000180546137e290614701565b80601f016020809104026020016040519081016040528092919081815260200182805461380e90614701565b801561385b5780601f106138305761010080835404028352916020019161385b565b820191906000526020600020905b81548152906001019060200180831161383e57829003601f168201915b50505050508152509050600260008573ffffffffffffffffffffffffffffffffffffffff1673ffffffffffffffffffffffffffffffffffffffff16815260200190815260200160002060020181908060018154018082558091505060019003906000526020600020906002020160009091909190915060008201518160000160006101000a81548173ffffffffffffffffffffffffffffffffffffffff021916908373ffffffffffffffffffffffffffffffffffffffff16021790555060208201518160010190805190602001906139349291906139c4565b5050505050505050565b82805461394a90614701565b90600052602060002090601f01602090048101928261396c57600085556139b3565b82601f1061398557803560ff19168380011785556139b3565b828001600101855582156139b3579182015b828111156139b2578235825591602001919060010190613997565b5b5090506139c09190613bd9565b5090565b8280546139d090614701565b90600052602060002090601f0160209004810192826139f25760008555613a39565b82601f10613a0b57805160ff1916838001178555613a39565b82800160010185558215613a39579182015b82811115613a38578251825591602001919060010190613a1d565b5b509050613a469190613bd9565b5090565b828054613a5690614701565b90600052602060002090601f016020900481019282613a785760008555613ac6565b82601f10613a895780548555613ac6565b82800160010185558215613ac657600052602060002091601f016020900482015b82811115613ac5578254825591600101919060010190613aaa565b5b509050613ad39190613bd9565b5090565b508054613ae390614701565b6000825580601f10613af55750613b14565b601f016020900490600052602060002090810190613b139190613bd9565b5b50565b828054828255906000526020600020908101928215613b66579160200282015b82811115613b65578251829080519060200190613b559291906139c4565b5091602001919060010190613b37565b5b509050613b739190613bf6565b5090565b60405180610120016040528060608152602001600073ffffffffffffffffffffffffffffffffffffffff168152602001606081526020016060815260200160608152602001600081526020016000815260200160008152602001606081525090565b5b80821115613bf2576000816000905550600101613bda565b5090565b5b80821115613c165760008181613c0d9190613ad7565b50600101613bf7565b5090565b6000604051905090565b600080fd5b600080fd5b600073ffffffffffffffffffffffffffffffffffffffff82169050919050565b6000613c5982613c2e565b9050919050565b613c6981613c4e565b8114613c7457600080fd5b50565b600081359050613c8681613c60565b92915050565b600060208284031215613ca257613ca1613c24565b5b6000613cb084828501613c77565b91505092915050565b60008115159050919050565b613cce81613cb9565b82525050565b6000602082019050613ce96000830184613cc5565b92915050565b600080fd5b600080fd5b600080fd5b60008083601f840112613d1457613d13613cef565b5b8235905067ffffffffffffffff811115613d3157613d30613cf4565b5b602083019150836001820283011115613d4d57613d4c613cf9565b5b9250929050565b60008060208385031215613d6b57613d6a613c24565b5b600083013567ffffffffffffffff811115613d8957613d88613c29565b5b613d9585828601613cfe565b92509250509250929050565b600081519050919050565b600082825260208201905092915050565b6000819050602082019050919050565b600081519050919050565b600082825260208201905092915050565b60005b83811015613e07578082015181840152602081019050613dec565b83811115613e16576000848401525b50505050565b6000601f19601f8301169050919050565b6000613e3882613dcd565b613e428185613dd8565b9350613e52818560208601613de9565b613e5b81613e1c565b840191505092915050565b6000613e7182613c2e565b9050919050565b613e8181613e66565b82525050565b6000819050919050565b613e9a81613e87565b82525050565b600081519050919050565b600082825260208201905092915050565b6000819050602082019050919050565b6000613ed88383613e2d565b905092915050565b6000602082019050919050565b6000613ef882613ea0565b613f028185613eab565b935083602082028501613f1485613ebc565b8060005b85811015613f505784840389528151613f318582613ecc565b9450613f3c83613ee0565b925060208a01995050600181019050613f18565b50829750879550505050505092915050565b6000610120830160008301518482036000860152613f808282613e2d565b9150506020830151613f956020860182613e78565b5060408301518482036040860152613fad8282613e2d565b91505060608301518482036060860152613fc78282613e2d565b91505060808301518482036080860152613fe18282613e2d565b91505060a0830151613ff660a0860182613e91565b5060c083015161400960c0860182613e91565b5060e083015161401c60e0860182613e91565b506101008301518482036101008601526140368282613eed565b9150508091505092915050565b600061404f8383613f62565b905092915050565b6000602082019050919050565b600061406f82613da1565b6140798185613dac565b93508360208202850161408b85613dbd565b8060005b858110156140c757848403895281516140a88582614043565b94506140b383614057565b925060208a0199505060018101905061408f565b50829750879550505050505092915050565b600060208201905081810360008301526140f38184614064565b905092915050565b600080fd5b7f4e487b7100000000000000000000000000000000000000000000000000000000600052604160045260246000fd5b61413882613e1c565b810181811067ffffffffffffffff8211171561415757614156614100565b5b80604052505050565b600061416a613c1a565b9050614176828261412f565b919050565b600067ffffffffffffffff82111561419657614195614100565b5b61419f82613e1c565b9050602081019050919050565b82818337600083830152505050565b60006141ce6141c98461417b565b614160565b9050828152602081018484840111156141ea576141e96140fb565b5b6141f58482856141ac565b509392505050565b600082601f83011261421257614211613cef565b5b81356142228482602086016141bb565b91505092915050565b60008060006060848603121561424457614243613c24565b5b600084013567ffffffffffffffff81111561426257614261613c29565b5b61426e868287016141fd565b935050602084013567ffffffffffffffff81111561428f5761428e613c29565b5b61429b868287016141fd565b925050604084013567ffffffffffffffff8111156142bc576142bb613c29565b5b6142c8868287016141fd565b9150509250925092565b60006101208301600083015184820360008601526142f08282613e2d565b91505060208301516143056020860182613e78565b506040830151848203604086015261431d8282613e2d565b915050606083015184820360608601526143378282613e2d565b915050608083015184820360808601526143518282613e2d565b91505060a083015161436660a0860182613e91565b5060c083015161437960c0860182613e91565b5060e083015161438c60e0860182613e91565b506101008301518482036101008601526143a68282613eed565b9150508091505092915050565b600060208201905081810360008301526143cd81846142d2565b905092915050565b600081519050919050565b600082825260208201905092915050565b6000819050602082019050919050565b61440a81613c4e565b82525050565b60006040830160008301516144286000860182614401565b50602083015184820360208601526144408282613e2d565b9150508091505092915050565b60006144598383614410565b905092915050565b6000602082019050919050565b6000614479826143d5565b61448381856143e0565b935083602082028501614495856143f1565b8060005b858110156144d157848403895281516144b2858261444d565b94506144bd83614461565b925060208a01995050600181019050614499565b50829750879550505050505092915050565b600060208201905081810360008301526144fd818461446e565b905092915050565b600081519050919050565b600082825260208201905092915050565b6000819050602082019050919050565b6000604083016000830151848203600086015261454e8282613e2d565b91505060208301516145636020860182614401565b508091505092915050565b600061457a8383614531565b905092915050565b6000602082019050919050565b600061459a82614505565b6145a48185614510565b9350836020820285016145b685614521565b8060005b858110156145f257848403895281516145d3858261456e565b94506145de83614582565b925060208a019950506001810190506145ba565b50829750879550505050505092915050565b6000602082019050818103600083015261461e818461458f565b905092915050565b6000806040838503121561463d5761463c613c24565b5b600061464b85828601613c77565b925050602061465c85828601613c77565b9150509250929050565b600082825260208201905092915050565b600061468282613dcd565b61468c8185614666565b935061469c818560208601613de9565b6146a581613e1c565b840191505092915050565b600060208201905081810360008301526146ca8184614677565b905092915050565b7f4e487b7100000000000000000000000000000000000000000000000000000000600052602260045260246000fd5b6000600282049050600182168061471957607f821691505b6020821081141561472d5761472c6146d2565b5b50919050565b7f5573657220616c726564792068617320616e206163636f756e74210000000000600082015250565b6000614769601b83614666565b915061477482614733565b602082019050919050565b600060208201905081810360008301526147988161475c565b9050919050565b7f55736572206e616d652073686f756c64206e6f7420626520656d707479210000600082015250565b60006147d5601e83614666565b91506147e08261479f565b602082019050919050565b60006020820190508181036000830152614804816147c8565b9050919050565b7f4e487b7100000000000000000000000000000000000000000000000000000000600052603260045260246000fd5b7f4e487b7100000000000000000000000000000000000000000000000000000000600052601160045260246000fd5b600061487482613e87565b91507fffffffffffffffffffffffffffffffffffffffffffffffffffffffffffffffff8214156148a7576148a661483a565b5b600182019050919050565b60006148bd82613e87565b91506148c883613e87565b9250828210156148db576148da61483a565b5b828203905092915050565b7f4e487b7100000000000000000000000000000000000000000000000000000000600052603160045260246000fd5b7f55736572206e6f74207265676973746572656421000000000000000000000000600082015250565b600061494b601483614666565b915061495682614915565b602082019050919050565b6000602082019050818103600083015261497a8161493e565b9050919050565b7f43726561746520616e206163636f756e74206669727374000000000000000000600082015250565b60006149b7601783614666565b91506149c282614981565b602082019050919050565b600060208201905081810360008301526149e6816149aa565b9050919050565b7f55736572206973206e6f74207265676973746572656421000000000000000000600082015250565b6000614a23601783614666565b9150614a2e826149ed565b602082019050919050565b60006020820190508181036000830152614a5281614a16565b9050919050565b7f55736572732063616e6e6f7420616464207468656d6573656c7665732061732060008201527f667269656e647300000000000000000000000000000000000000000000000000602082015250565b6000614ab5602783614666565b9150614ac082614a59565b604082019050919050565b60006020820190508181036000830152614ae481614aa8565b9050919050565b7f54686573652075736572732061726520616c726561647920667269656e647300600082015250565b6000614b21601f83614666565b9150614b2c82614aeb565b602082019050919050565b60006020820190508181036000830152614b5081614b14565b905091905056fea26469706673582212203f6edb79dffff6f12d64a1b1cfa44f017d1317f6129ce916db35a4491198cd0e64736f6c63430008090033",
  "linkReferences": {},
  "deployedLinkReferences": {}
}