{
  "_format": "hh-sol-artifact-1",
  "contractName": "Inscrible",
  "sourceName": "contracts/Inscrible.sol",
  "abi": [
    {
      "inputs": [
        {
          "internalType": "address",
          "name": "following_key",
          "type": "address"
        }
      ],
      "name": "addFriend",
      "outputs": [],
      "stateMutability": "nonpayable",
      "type": "function"
    },
    {
      "inputs": [
        {
          "internalType": "string",
          "name": "_imgHash",
          "type": "string"
        },
        {
          "internalType": "string",
          "name": "desc",
          "type": "string"
        },
        {
          "internalType": "string",
          "name": "imgText",
          "type": "string"
        }
      ],
      "name": "addPostImage",
      "outputs": [],
      "stateMutability": "nonpayable",
      "type": "function"
    },
    {
      "inputs": [
        {
          "internalType": "address",
          "name": "me",
          "type": "address"
        },
        {
          "internalType": "address",
          "name": "following_key",
          "type": "address"
        }
      ],
      "name": "checkAlreadyFriends",
      "outputs": [
        {
          "internalType": "bool",
          "name": "",
          "type": "bool"
        }
      ],
      "stateMutability": "view",
      "type": "function"
    },
    {
      "inputs": [
        {
          "internalType": "address",
          "name": "key",
          "type": "address"
        }
      ],
      "name": "checkUser",
      "outputs": [
        {
          "internalType": "bool",
          "name": "",
          "type": "bool"
        }
      ],
      "stateMutability": "view",
      "type": "function"
    },
    {
      "inputs": [
        {
          "internalType": "string",
          "name": "_username",
          "type": "string"
        }
      ],
      "name": "createAccount",
      "outputs": [],
      "stateMutability": "nonpayable",
      "type": "function"
    },
    {
      "inputs": [],
      "name": "getAllAppUser",
      "outputs": [
        {
          "components": [
            {
              "internalType": "string",
              "name": "username",
              "type": "string"
            },
            {
              "internalType": "address",
              "name": "accountAddress",
              "type": "address"
            }
          ],
          "internalType": "struct Inscrible.AllUserStruck[]",
          "name": "",
          "type": "tuple[]"
        }
      ],
      "stateMutability": "view",
      "type": "function"
    },
    {
      "inputs": [],
      "name": "getAllPosts",
      "outputs": [
        {
          "components": [
            {
              "internalType": "string",
              "name": "createrName",
              "type": "string"
            },
            {
              "internalType": "address payable",
              "name": "userAddress",
              "type": "address"
            },
            {
              "internalType": "string",
              "name": "imageHash",
              "type": "string"
            },
            {
              "internalType": "string",
              "name": "caption",
              "type": "string"
            },
            {
              "internalType": "string",
              "name": "imageText",
              "type": "string"
            },
            {
              "internalType": "uint256",
              "name": "tipAmount",
              "type": "uint256"
            },
            {
              "internalType": "uint256",
              "name": "id",
              "type": "uint256"
            },
            {
              "internalType": "uint256",
              "name": "likeCount",
              "type": "uint256"
            },
            {
              "internalType": "string[]",
              "name": "likedByUser",
              "type": "string[]"
            }
          ],
          "internalType": "struct Inscrible.Post[]",
          "name": "",
          "type": "tuple[]"
        }
      ],
      "stateMutability": "view",
      "type": "function"
    },
    {
      "inputs": [
        {
          "internalType": "address",
          "name": "_user",
          "type": "address"
        }
      ],
      "name": "getMyFollowersList",
      "outputs": [
        {
          "components": [
            {
              "internalType": "address",
              "name": "pubkey",
              "type": "address"
            },
            {
              "internalType": "string",
              "name": "name",
              "type": "string"
            }
          ],
          "internalType": "struct Inscrible.friend[]",
          "name": "",
          "type": "tuple[]"
        }
      ],
      "stateMutability": "view",
      "type": "function"
    },
    {
      "inputs": [
        {
          "internalType": "address",
          "name": "_user",
          "type": "address"
        }
      ],
      "name": "getMyFollowingsList",
      "outputs": [
        {
          "components": [
            {
              "internalType": "address",
              "name": "pubkey",
              "type": "address"
            },
            {
              "internalType": "string",
              "name": "name",
              "type": "string"
            }
          ],
          "internalType": "struct Inscrible.friend[]",
          "name": "",
          "type": "tuple[]"
        }
      ],
      "stateMutability": "view",
      "type": "function"
    },
    {
      "inputs": [
        {
          "internalType": "address",
          "name": "_user",
          "type": "address"
        }
      ],
      "name": "getMyProfilePost",
      "outputs": [
        {
          "components": [
            {
              "internalType": "string",
              "name": "createrName",
              "type": "string"
            },
            {
              "internalType": "address payable",
              "name": "userAddress",
              "type": "address"
            },
            {
              "internalType": "string",
              "name": "imageHash",
              "type": "string"
            },
            {
              "internalType": "string",
              "name": "caption",
              "type": "string"
            },
            {
              "internalType": "string",
              "name": "imageText",
              "type": "string"
            },
            {
              "internalType": "uint256",
              "name": "tipAmount",
              "type": "uint256"
            },
            {
              "internalType": "uint256",
              "name": "id",
              "type": "uint256"
            },
            {
              "internalType": "uint256",
              "name": "likeCount",
              "type": "uint256"
            },
            {
              "internalType": "string[]",
              "name": "likedByUser",
              "type": "string[]"
            }
          ],
          "internalType": "struct Inscrible.Post[]",
          "name": "",
          "type": "tuple[]"
        }
      ],
      "stateMutability": "view",
      "type": "function"
    },
    {
      "inputs": [
        {
          "internalType": "address",
          "name": "key",
          "type": "address"
        }
      ],
      "name": "getSingleUserLatestPost",
      "outputs": [
        {
          "components": [
            {
              "internalType": "string",
              "name": "createrName",
              "type": "string"
            },
            {
              "internalType": "address payable",
              "name": "userAddress",
              "type": "address"
            },
            {
              "internalType": "string",
              "name": "imageHash",
              "type": "string"
            },
            {
              "internalType": "string",
              "name": "caption",
              "type": "string"
            },
            {
              "internalType": "string",
              "name": "imageText",
              "type": "string"
            },
            {
              "internalType": "uint256",
              "name": "tipAmount",
              "type": "uint256"
            },
            {
              "internalType": "uint256",
              "name": "id",
              "type": "uint256"
            },
            {
              "internalType": "uint256",
              "name": "likeCount",
              "type": "uint256"
            },
            {
              "internalType": "string[]",
              "name": "likedByUser",
              "type": "string[]"
            }
          ],
          "internalType": "struct Inscrible.Post",
          "name": "",
          "type": "tuple"
        }
      ],
      "stateMutability": "view",
      "type": "function"
    },
    {
      "inputs": [
        {
          "internalType": "address",
          "name": "key",
          "type": "address"
        }
      ],
      "name": "getSingleUserPost",
      "outputs": [
        {
          "components": [
            {
              "internalType": "string",
              "name": "createrName",
              "type": "string"
            },
            {
              "internalType": "address payable",
              "name": "userAddress",
              "type": "address"
            },
            {
              "internalType": "string",
              "name": "imageHash",
              "type": "string"
            },
            {
              "internalType": "string",
              "name": "caption",
              "type": "string"
            },
            {
              "internalType": "string",
              "name": "imageText",
              "type": "string"
            },
            {
              "internalType": "uint256",
              "name": "tipAmount",
              "type": "uint256"
            },
            {
              "internalType": "uint256",
              "name": "id",
              "type": "uint256"
            },
            {
              "internalType": "uint256",
              "name": "likeCount",
              "type": "uint256"
            },
            {
              "internalType": "string[]",
              "name": "likedByUser",
              "type": "string[]"
            }
          ],
          "internalType": "struct Inscrible.Post[]",
          "name": "",
          "type": "tuple[]"
        }
      ],
      "stateMutability": "view",
      "type": "function"
    },
    {
      "inputs": [
        {
          "internalType": "address",
          "name": "key",
          "type": "address"
        }
      ],
      "name": "getUsername",
      "outputs": [
        {
          "internalType": "string",
          "name": "",
          "type": "string"
        }
      ],
      "stateMutability": "view",
      "type": "function"
    },
    {
      "inputs": [
        {
          "internalType": "address",
          "name": "followerAddress",
          "type": "address"
        }
      ],
      "name": "removeFollower",
      "outputs": [],
      "stateMutability": "nonpayable",
      "type": "function"
    },
    {
      "inputs": [
        {
          "internalType": "address",
          "name": "followingAddress",
          "type": "address"
        }
      ],
      "name": "removeFriend",
      "outputs": [],
      "stateMutability": "nonpayable",
      "type": "function"
    },
    {
      "stateMutability": "payable",
      "type": "receive"
    }
  ],
  "bytecode": "0x6080604052600060015534801561001557600080fd5b50614e41806100256000396000f3fe6080604052600436106100ec5760003560e01c806373fc70b01161008a578063b9a4134f11610059578063b9a4134f14610323578063ce43c03214610360578063d7a1cfe11461039d578063f1114398146103c6576100f3565b806373fc70b01461025557806380cee8a514610292578063a24d41de146102bb578063aed84e7b146102e6576100f3565b806330561100116100c6578063305611001461019b578063308837ed146101c657806359737a54146101ef578063734ee8e514610218576100f3565b80631e9d48cf146100f8578063298daf5b146101355780632e2176f61461015e576100f3565b366100f357005b600080fd5b34801561010457600080fd5b5061011f600480360381019061011a9190613f40565b610403565b60405161012c9190613f88565b60405180910390f35b34801561014157600080fd5b5061015c60048036038101906101579190614008565b610475565b005b34801561016a57600080fd5b5061018560048036038101906101809190613f40565b610660565b604051610192919061438d565b60405180910390f35b3480156101a757600080fd5b506101b0610a97565b6040516101bd919061438d565b60405180910390f35b3480156101d257600080fd5b506101ed60048036038101906101e89190613f40565b610e8c565b005b3480156101fb57600080fd5b50610216600480360381019061021191906144df565b611589565b005b34801561022457600080fd5b5061023f600480360381019061023a9190613f40565b611daa565b60405161024c9190614667565b60405180910390f35b34801561026157600080fd5b5061027c60048036038101906102779190613f40565b612207565b6040516102899190614797565b60405180910390f35b34801561029e57600080fd5b506102b960048036038101906102b49190613f40565b612390565b005b3480156102c757600080fd5b506102d0612a8d565b6040516102dd91906148b8565b60405180910390f35b3480156102f257600080fd5b5061030d60048036038101906103089190613f40565b612bd4565b60405161031a9190614797565b60405180910390f35b34801561032f57600080fd5b5061034a600480360381019061034591906148da565b612d5d565b6040516103579190613f88565b60405180910390f35b34801561036c57600080fd5b5061038760048036038101906103829190613f40565b612e94565b6040516103949190614964565b60405180910390f35b3480156103a957600080fd5b506103c460048036038101906103bf9190613f40565b612f68565b005b3480156103d257600080fd5b506103ed60048036038101906103e89190613f40565b6133db565b6040516103fa919061438d565b60405180910390f35b600080600080549050111561046b576000600260008473ffffffffffffffffffffffffffffffffffffffff1673ffffffffffffffffffffffffffffffffffffffff1681526020019081526020016000206000018054610461906149b5565b9050119050610470565b600090505b919050565b6000151561048233610403565b1515146104c4576040517f08c379a00000000000000000000000000000000000000000000000000000000081526004016104bb90614a33565b60405180910390fd5b6000828290501161050a576040517f08c379a000000000000000000000000000000000000000000000000000000000815260040161050190614a9f565b60405180910390fd5b8181600260003373ffffffffffffffffffffffffffffffffffffffff1673ffffffffffffffffffffffffffffffffffffffff168152602001908152602001600020600001919061055b929190613b8a565b506000604051806040016040528084848080601f016020809104026020016040519081016040528093929190818152602001838380828437600081840152601f19601f8201169050808301925050505050505081526020013373ffffffffffffffffffffffffffffffffffffffff1681525090806001815401808255809150506001900390600052602060002090600202016000909190919091506000820151816000019080519060200190610612929190613c10565b5060208201518160010160006101000a81548173ffffffffffffffffffffffffffffffffffffffff021916908373ffffffffffffffffffffffffffffffffffffffff16021790555050505050565b6060600260008373ffffffffffffffffffffffffffffffffffffffff1673ffffffffffffffffffffffffffffffffffffffff168152602001908152602001600020600301805480602002602001604051908101604052809291908181526020016000905b82821015610a8c5783829060005260206000209060090201604051806101200160405290816000820180546106f8906149b5565b80601f0160208091040260200160405190810160405280929190818152602001828054610724906149b5565b80156107715780601f1061074657610100808354040283529160200191610771565b820191906000526020600020905b81548152906001019060200180831161075457829003601f168201915b505050505081526020016001820160009054906101000a900473ffffffffffffffffffffffffffffffffffffffff1673ffffffffffffffffffffffffffffffffffffffff1673ffffffffffffffffffffffffffffffffffffffff1681526020016002820180546107e0906149b5565b80601f016020809104026020016040519081016040528092919081815260200182805461080c906149b5565b80156108595780601f1061082e57610100808354040283529160200191610859565b820191906000526020600020905b81548152906001019060200180831161083c57829003601f168201915b50505050508152602001600382018054610872906149b5565b80601f016020809104026020016040519081016040528092919081815260200182805461089e906149b5565b80156108eb5780601f106108c0576101008083540402835291602001916108eb565b820191906000526020600020905b8154815290600101906020018083116108ce57829003601f168201915b50505050508152602001600482018054610904906149b5565b80601f0160208091040260200160405190810160405280929190818152602001828054610930906149b5565b801561097d5780601f106109525761010080835404028352916020019161097d565b820191906000526020600020905b81548152906001019060200180831161096057829003601f168201915b5050505050815260200160058201548152602001600682015481526020016007820154815260200160088201805480602002602001604051908101604052809291908181526020016000905b82821015610a755783829060005260206000200180546109e8906149b5565b80601f0160208091040260200160405190810160405280929190818152602001828054610a14906149b5565b8015610a615780601f10610a3657610100808354040283529160200191610a61565b820191906000526020600020905b815481529060010190602001808311610a4457829003601f168201915b5050505050815260200190600101906109c9565b5050505081525050815260200190600101906106c4565b505050509050919050565b60606004805480602002602001604051908101604052809291908181526020016000905b82821015610e83578382906000526020600020906009020160405180610120016040529081600082018054610aef906149b5565b80601f0160208091040260200160405190810160405280929190818152602001828054610b1b906149b5565b8015610b685780601f10610b3d57610100808354040283529160200191610b68565b820191906000526020600020905b815481529060010190602001808311610b4b57829003601f168201915b505050505081526020016001820160009054906101000a900473ffffffffffffffffffffffffffffffffffffffff1673ffffffffffffffffffffffffffffffffffffffff1673ffffffffffffffffffffffffffffffffffffffff168152602001600282018054610bd7906149b5565b80601f0160208091040260200160405190810160405280929190818152602001828054610c03906149b5565b8015610c505780601f10610c2557610100808354040283529160200191610c50565b820191906000526020600020905b815481529060010190602001808311610c3357829003601f168201915b50505050508152602001600382018054610c69906149b5565b80601f0160208091040260200160405190810160405280929190818152602001828054610c95906149b5565b8015610ce25780601f10610cb757610100808354040283529160200191610ce2565b820191906000526020600020905b815481529060010190602001808311610cc557829003601f168201915b50505050508152602001600482018054610cfb906149b5565b80601f0160208091040260200160405190810160405280929190818152602001828054610d27906149b5565b8015610d745780601f10610d4957610100808354040283529160200191610d74565b820191906000526020600020905b815481529060010190602001808311610d5757829003601f168201915b5050505050815260200160058201548152602001600682015481526020016007820154815260200160088201805480602002602001604051908101604052809291908181526020016000905b82821015610e6c578382906000526020600020018054610ddf906149b5565b80601f0160208091040260200160405190810160405280929190818152602001828054610e0b906149b5565b8015610e585780601f10610e2d57610100808354040283529160200191610e58565b820191906000526020600020905b815481529060010190602001808311610e3b57829003601f168201915b505050505081526020019060010190610dc0565b505050508152505081526020019060010190610abb565b50505050905090565b6000806000905060005b600260003373ffffffffffffffffffffffffffffffffffffffff1673ffffffffffffffffffffffffffffffffffffffff16815260200190815260200160002060010180549050811015610fbb578373ffffffffffffffffffffffffffffffffffffffff16600260003373ffffffffffffffffffffffffffffffffffffffff1673ffffffffffffffffffffffffffffffffffffffff1681526020019081526020016000206001018281548110610f4e57610f4d614abf565b5b906000526020600020906002020160000160009054906101000a900473ffffffffffffffffffffffffffffffffffffffff1673ffffffffffffffffffffffffffffffffffffffff161415610fa85780925060019150610fbb565b8080610fb390614b1d565b915050610e96565b50801561120457600260003373ffffffffffffffffffffffffffffffffffffffff1673ffffffffffffffffffffffffffffffffffffffff1681526020019081526020016000206001016001600260003373ffffffffffffffffffffffffffffffffffffffff1673ffffffffffffffffffffffffffffffffffffffff168152602001908152602001600020600101805490506110569190614b66565b8154811061106757611066614abf565b5b9060005260206000209060020201600260003373ffffffffffffffffffffffffffffffffffffffff1673ffffffffffffffffffffffffffffffffffffffff16815260200190815260200160002060010183815481106110c9576110c8614abf565b5b90600052602060002090600202016000820160009054906101000a900473ffffffffffffffffffffffffffffffffffffffff168160000160006101000a81548173ffffffffffffffffffffffffffffffffffffffff021916908373ffffffffffffffffffffffffffffffffffffffff1602179055506001820181600101908054611152906149b5565b61115d929190613c96565b50905050600260003373ffffffffffffffffffffffffffffffffffffffff1673ffffffffffffffffffffffffffffffffffffffff1681526020019081526020016000206001018054806111b3576111b2614b9a565b5b6001900381819060005260206000209060020201600080820160006101000a81549073ffffffffffffffffffffffffffffffffffffffff02191690556001820160006111ff9190613d23565b505090555b6000806000905060005b600260008773ffffffffffffffffffffffffffffffffffffffff1673ffffffffffffffffffffffffffffffffffffffff16815260200190815260200160002060020180549050811015611333573373ffffffffffffffffffffffffffffffffffffffff16600260008873ffffffffffffffffffffffffffffffffffffffff1673ffffffffffffffffffffffffffffffffffffffff16815260200190815260200160002060020182815481106112c6576112c5614abf565b5b906000526020600020906002020160000160009054906101000a900473ffffffffffffffffffffffffffffffffffffffff1673ffffffffffffffffffffffffffffffffffffffff1614156113205780925060019150611333565b808061132b90614b1d565b91505061120e565b508015611582576000600260008773ffffffffffffffffffffffffffffffffffffffff1673ffffffffffffffffffffffffffffffffffffffff168152602001908152602001600020600201805490509050600260008773ffffffffffffffffffffffffffffffffffffffff1673ffffffffffffffffffffffffffffffffffffffff1681526020019081526020016000206002016001826113d39190614b66565b815481106113e4576113e3614abf565b5b9060005260206000209060020201600260008873ffffffffffffffffffffffffffffffffffffffff1673ffffffffffffffffffffffffffffffffffffffff168152602001908152602001600020600201848154811061144657611445614abf565b5b90600052602060002090600202016000820160009054906101000a900473ffffffffffffffffffffffffffffffffffffffff168160000160006101000a81548173ffffffffffffffffffffffffffffffffffffffff021916908373ffffffffffffffffffffffffffffffffffffffff16021790555060018201816001019080546114cf906149b5565b6114da929190613c96565b50905050600260008773ffffffffffffffffffffffffffffffffffffffff1673ffffffffffffffffffffffffffffffffffffffff1681526020019081526020016000206002018054806115305761152f614b9a565b5b6001900381819060005260206000209060020201600080820160006101000a81549073ffffffffffffffffffffffffffffffffffffffff021916905560018201600061157c9190613d23565b50509055505b5050505050565b61159233610403565b6115d1576040517f08c379a00000000000000000000000000000000000000000000000000000000081526004016115c890614c15565b60405180910390fd5b60008351116115df57600080fd5b600160008154809291906115f290614b1d565b91905055506000604051806101200160405280600260003373ffffffffffffffffffffffffffffffffffffffff1673ffffffffffffffffffffffffffffffffffffffff1681526020019081526020016000206000018054611652906149b5565b80601f016020809104026020016040519081016040528092919081815260200182805461167e906149b5565b80156116cb5780601f106116a0576101008083540402835291602001916116cb565b820191906000526020600020905b8154815290600101906020018083116116ae57829003601f168201915b505050505081526020013373ffffffffffffffffffffffffffffffffffffffff16815260200185815260200184815260200183815260200160008152602001600154815260200160008152602001600067ffffffffffffffff811115611734576117336143b4565b5b60405190808252806020026020018201604052801561176757816020015b60608152602001906001900390816117525790505b50815250905060005b600260003373ffffffffffffffffffffffffffffffffffffffff1673ffffffffffffffffffffffffffffffffffffffff168152602001908152602001600020600101805490508110156119b75760036000600260003373ffffffffffffffffffffffffffffffffffffffff1673ffffffffffffffffffffffffffffffffffffffff168152602001908152602001600020600101838154811061181557611814614abf565b5b906000526020600020906002020160000160009054906101000a900473ffffffffffffffffffffffffffffffffffffffff1673ffffffffffffffffffffffffffffffffffffffff1673ffffffffffffffffffffffffffffffffffffffff16815260200190815260200160002082908060018154018082558091505060019003906000526020600020906009020160009091909190915060008201518160000190805190602001906118c7929190613c10565b5060208201518160010160006101000a81548173ffffffffffffffffffffffffffffffffffffffff021916908373ffffffffffffffffffffffffffffffffffffffff160217905550604082015181600201908051906020019061192b929190613c10565b506060820151816003019080519060200190611948929190613c10565b506080820151816004019080519060200190611965929190613c10565b5060a0820151816005015560c0820151816006015560e082015181600701556101008201518160080190805190602001906119a1929190613d63565b50505080806119af90614b1d565b915050611770565b50600260003373ffffffffffffffffffffffffffffffffffffffff1673ffffffffffffffffffffffffffffffffffffffff1681526020019081526020016000206003018190806001815401808255809150506001900390600052602060002090600902016000909190919091506000820151816000019080519060200190611a40929190613c10565b5060208201518160010160006101000a81548173ffffffffffffffffffffffffffffffffffffffff021916908373ffffffffffffffffffffffffffffffffffffffff1602179055506040820151816002019080519060200190611aa4929190613c10565b506060820151816003019080519060200190611ac1929190613c10565b506080820151816004019080519060200190611ade929190613c10565b5060a0820151816005015560c0820151816006015560e08201518160070155610100820151816008019080519060200190611b1a929190613d63565b505050600360003373ffffffffffffffffffffffffffffffffffffffff1673ffffffffffffffffffffffffffffffffffffffff1681526020019081526020016000208190806001815401808255809150506001900390600052602060002090600902016000909190919091506000820151816000019080519060200190611ba2929190613c10565b5060208201518160010160006101000a81548173ffffffffffffffffffffffffffffffffffffffff021916908373ffffffffffffffffffffffffffffffffffffffff1602179055506040820151816002019080519060200190611c06929190613c10565b506060820151816003019080519060200190611c23929190613c10565b506080820151816004019080519060200190611c40929190613c10565b5060a0820151816005015560c0820151816006015560e08201518160070155610100820151816008019080519060200190611c7c929190613d63565b50505060048190806001815401808255809150506001900390600052602060002090600902016000909190919091506000820151816000019080519060200190611cc7929190613c10565b5060208201518160010160006101000a81548173ffffffffffffffffffffffffffffffffffffffff021916908373ffffffffffffffffffffffffffffffffffffffff1602179055506040820151816002019080519060200190611d2b929190613c10565b506060820151816003019080519060200190611d48929190613c10565b506080820151816004019080519060200190611d65929190613c10565b5060a0820151816005015560c0820151816006015560e08201518160070155610100820151816008019080519060200190611da1929190613d63565b50505050505050565b611db2613dc3565b600360008373ffffffffffffffffffffffffffffffffffffffff1673ffffffffffffffffffffffffffffffffffffffff1681526020019081526020016000206001600360008573ffffffffffffffffffffffffffffffffffffffff1673ffffffffffffffffffffffffffffffffffffffff16815260200190815260200160002080549050611e409190614b66565b81548110611e5157611e50614abf565b5b906000526020600020906009020160405180610120016040529081600082018054611e7b906149b5565b80601f0160208091040260200160405190810160405280929190818152602001828054611ea7906149b5565b8015611ef45780601f10611ec957610100808354040283529160200191611ef4565b820191906000526020600020905b815481529060010190602001808311611ed757829003601f168201915b505050505081526020016001820160009054906101000a900473ffffffffffffffffffffffffffffffffffffffff1673ffffffffffffffffffffffffffffffffffffffff1673ffffffffffffffffffffffffffffffffffffffff168152602001600282018054611f63906149b5565b80601f0160208091040260200160405190810160405280929190818152602001828054611f8f906149b5565b8015611fdc5780601f10611fb157610100808354040283529160200191611fdc565b820191906000526020600020905b815481529060010190602001808311611fbf57829003601f168201915b50505050508152602001600382018054611ff5906149b5565b80601f0160208091040260200160405190810160405280929190818152602001828054612021906149b5565b801561206e5780601f106120435761010080835404028352916020019161206e565b820191906000526020600020905b81548152906001019060200180831161205157829003601f168201915b50505050508152602001600482018054612087906149b5565b80601f01602080910402602001604051908101604052809291908181526020018280546120b3906149b5565b80156121005780601f106120d557610100808354040283529160200191612100565b820191906000526020600020905b8154815290600101906020018083116120e357829003601f168201915b5050505050815260200160058201548152602001600682015481526020016007820154815260200160088201805480602002602001604051908101604052809291908181526020016000905b828210156121f857838290600052602060002001805461216b906149b5565b80601f0160208091040260200160405190810160405280929190818152602001828054612197906149b5565b80156121e45780601f106121b9576101008083540402835291602001916121e4565b820191906000526020600020905b8154815290600101906020018083116121c757829003601f168201915b50505050508152602001906001019061214c565b50505050815250509050919050565b6060600260008373ffffffffffffffffffffffffffffffffffffffff1673ffffffffffffffffffffffffffffffffffffffff168152602001908152602001600020600101805480602002602001604051908101604052809291908181526020016000905b8282101561238557838290600052602060002090600202016040518060400160405290816000820160009054906101000a900473ffffffffffffffffffffffffffffffffffffffff1673ffffffffffffffffffffffffffffffffffffffff1673ffffffffffffffffffffffffffffffffffffffff1681526020016001820180546122f4906149b5565b80601f0160208091040260200160405190810160405280929190818152602001828054612320906149b5565b801561236d5780601f106123425761010080835404028352916020019161236d565b820191906000526020600020905b81548152906001019060200180831161235057829003601f168201915b5050505050815250508152602001906001019061226b565b505050509050919050565b6000806000905060005b600260008573ffffffffffffffffffffffffffffffffffffffff1673ffffffffffffffffffffffffffffffffffffffff168152602001908152602001600020600101805490508110156124bf573373ffffffffffffffffffffffffffffffffffffffff16600260008673ffffffffffffffffffffffffffffffffffffffff1673ffffffffffffffffffffffffffffffffffffffff168152602001908152602001600020600101828154811061245257612451614abf565b5b906000526020600020906002020160000160009054906101000a900473ffffffffffffffffffffffffffffffffffffffff1673ffffffffffffffffffffffffffffffffffffffff1614156124ac57809250600191506124bf565b80806124b790614b1d565b91505061239a565b50801561270857600260008473ffffffffffffffffffffffffffffffffffffffff1673ffffffffffffffffffffffffffffffffffffffff1681526020019081526020016000206001016001600260008673ffffffffffffffffffffffffffffffffffffffff1673ffffffffffffffffffffffffffffffffffffffff1681526020019081526020016000206001018054905061255a9190614b66565b8154811061256b5761256a614abf565b5b9060005260206000209060020201600260008573ffffffffffffffffffffffffffffffffffffffff1673ffffffffffffffffffffffffffffffffffffffff16815260200190815260200160002060010183815481106125cd576125cc614abf565b5b90600052602060002090600202016000820160009054906101000a900473ffffffffffffffffffffffffffffffffffffffff168160000160006101000a81548173ffffffffffffffffffffffffffffffffffffffff021916908373ffffffffffffffffffffffffffffffffffffffff1602179055506001820181600101908054612656906149b5565b612661929190613c96565b50905050600260008473ffffffffffffffffffffffffffffffffffffffff1673ffffffffffffffffffffffffffffffffffffffff1681526020019081526020016000206001018054806126b7576126b6614b9a565b5b6001900381819060005260206000209060020201600080820160006101000a81549073ffffffffffffffffffffffffffffffffffffffff02191690556001820160006127039190613d23565b505090555b6000806000905060005b600260003373ffffffffffffffffffffffffffffffffffffffff1673ffffffffffffffffffffffffffffffffffffffff16815260200190815260200160002060020180549050811015612837578573ffffffffffffffffffffffffffffffffffffffff16600260003373ffffffffffffffffffffffffffffffffffffffff1673ffffffffffffffffffffffffffffffffffffffff16815260200190815260200160002060020182815481106127ca576127c9614abf565b5b906000526020600020906002020160000160009054906101000a900473ffffffffffffffffffffffffffffffffffffffff1673ffffffffffffffffffffffffffffffffffffffff1614156128245780925060019150612837565b808061282f90614b1d565b915050612712565b508015612a86576000600260003373ffffffffffffffffffffffffffffffffffffffff1673ffffffffffffffffffffffffffffffffffffffff168152602001908152602001600020600201805490509050600260003373ffffffffffffffffffffffffffffffffffffffff1673ffffffffffffffffffffffffffffffffffffffff1681526020019081526020016000206002016001826128d79190614b66565b815481106128e8576128e7614abf565b5b9060005260206000209060020201600260003373ffffffffffffffffffffffffffffffffffffffff1673ffffffffffffffffffffffffffffffffffffffff168152602001908152602001600020600201848154811061294a57612949614abf565b5b90600052602060002090600202016000820160009054906101000a900473ffffffffffffffffffffffffffffffffffffffff168160000160006101000a81548173ffffffffffffffffffffffffffffffffffffffff021916908373ffffffffffffffffffffffffffffffffffffffff16021790555060018201816001019080546129d3906149b5565b6129de929190613c96565b50905050600260003373ffffffffffffffffffffffffffffffffffffffff1673ffffffffffffffffffffffffffffffffffffffff168152602001908152602001600020600201805480612a3457612a33614b9a565b5b6001900381819060005260206000209060020201600080820160006101000a81549073ffffffffffffffffffffffffffffffffffffffff0219169055600182016000612a809190613d23565b50509055505b5050505050565b60606000805480602002602001604051908101604052809291908181526020016000905b82821015612bcb5783829060005260206000209060020201604051806040016040529081600082018054612ae4906149b5565b80601f0160208091040260200160405190810160405280929190818152602001828054612b10906149b5565b8015612b5d5780601f10612b3257610100808354040283529160200191612b5d565b820191906000526020600020905b815481529060010190602001808311612b4057829003601f168201915b505050505081526020016001820160009054906101000a900473ffffffffffffffffffffffffffffffffffffffff1673ffffffffffffffffffffffffffffffffffffffff1673ffffffffffffffffffffffffffffffffffffffff168152505081526020019060010190612ab1565b50505050905090565b6060600260008373ffffffffffffffffffffffffffffffffffffffff1673ffffffffffffffffffffffffffffffffffffffff168152602001908152602001600020600201805480602002602001604051908101604052809291908181526020016000905b82821015612d5257838290600052602060002090600202016040518060400160405290816000820160009054906101000a900473ffffffffffffffffffffffffffffffffffffffff1673ffffffffffffffffffffffffffffffffffffffff1673ffffffffffffffffffffffffffffffffffffffff168152602001600182018054612cc1906149b5565b80601f0160208091040260200160405190810160405280929190818152602001828054612ced906149b5565b8015612d3a5780601f10612d0f57610100808354040283529160200191612d3a565b820191906000526020600020905b815481529060010190602001808311612d1d57829003601f168201915b50505050508152505081526020019060010190612c38565b505050509050919050565b600080600090505b600260008473ffffffffffffffffffffffffffffffffffffffff1673ffffffffffffffffffffffffffffffffffffffff16815260200190815260200160002060010180549050811015612e88578373ffffffffffffffffffffffffffffffffffffffff16600260008573ffffffffffffffffffffffffffffffffffffffff1673ffffffffffffffffffffffffffffffffffffffff1681526020019081526020016000206001018281548110612e1d57612e1c614abf565b5b906000526020600020906002020160000160009054906101000a900473ffffffffffffffffffffffffffffffffffffffff1673ffffffffffffffffffffffffffffffffffffffff161415612e75576001915050612e8e565b8080612e8090614b1d565b915050612d65565b50600090505b92915050565b6060600260008373ffffffffffffffffffffffffffffffffffffffff1673ffffffffffffffffffffffffffffffffffffffff1681526020019081526020016000206000018054612ee3906149b5565b80601f0160208091040260200160405190810160405280929190818152602001828054612f0f906149b5565b8015612f5c5780601f10612f3157610100808354040283529160200191612f5c565b820191906000526020600020905b815481529060010190602001808311612f3f57829003601f168201915b50505050509050919050565b612f7133610403565b612fb0576040517f08c379a0000000000000000000000000000000000000000000000000000000008152600401612fa790614c81565b60405180910390fd5b612fb981610403565b612ff8576040517f08c379a0000000000000000000000000000000000000000000000000000000008152600401612fef90614ced565b60405180910390fd5b8073ffffffffffffffffffffffffffffffffffffffff163373ffffffffffffffffffffffffffffffffffffffff161415613067576040517f08c379a000000000000000000000000000000000000000000000000000000000815260040161305e90614d7f565b60405180910390fd5b600015156130753383612d5d565b1515146130b7576040517f08c379a00000000000000000000000000000000000000000000000000000000081526004016130ae90614deb565b60405180910390fd5b61318c8133600260003373ffffffffffffffffffffffffffffffffffffffff1673ffffffffffffffffffffffffffffffffffffffff1681526020019081526020016000206000018054613109906149b5565b80601f0160208091040260200160405190810160405280929190818152602001828054613135906149b5565b80156131825780601f1061315757610100808354040283529160200191613182565b820191906000526020600020905b81548152906001019060200180831161316557829003601f168201915b50505050506138b7565b60005b600260008373ffffffffffffffffffffffffffffffffffffffff1673ffffffffffffffffffffffffffffffffffffffff168152602001908152602001600020600301805490508110156133d757600360003373ffffffffffffffffffffffffffffffffffffffff1673ffffffffffffffffffffffffffffffffffffffff168152602001908152602001600020600260008473ffffffffffffffffffffffffffffffffffffffff1673ffffffffffffffffffffffffffffffffffffffff168152602001908152602001600020600301828154811061326f5761326e614abf565b5b9060005260206000209060090201908060018154018082558091505060019003906000526020600020906009020160009091909190915060008201816000019080546132ba906149b5565b6132c5929190613c96565b506001820160009054906101000a900473ffffffffffffffffffffffffffffffffffffffff168160010160006101000a81548173ffffffffffffffffffffffffffffffffffffffff021916908373ffffffffffffffffffffffffffffffffffffffff1602179055506002820181600201908054613341906149b5565b61334c929190613c96565b506003820181600301908054613361906149b5565b61336c929190613c96565b506004820181600401908054613381906149b5565b61338c929190613c96565b5060058201548160050155600682015481600601556007820154816007015560088201816008019080546133c1929190613e25565b50505080806133cf90614b1d565b91505061318f565b5050565b60606000600360008473ffffffffffffffffffffffffffffffffffffffff1673ffffffffffffffffffffffffffffffffffffffff16815260200190815260200160002080549050111561385a57600360008373ffffffffffffffffffffffffffffffffffffffff1673ffffffffffffffffffffffffffffffffffffffff168152602001908152602001600020805480602002602001604051908101604052809291908181526020016000905b8282101561384f5783829060005260206000209060090201604051806101200160405290816000820180546134bb906149b5565b80601f01602080910402602001604051908101604052809291908181526020018280546134e7906149b5565b80156135345780601f1061350957610100808354040283529160200191613534565b820191906000526020600020905b81548152906001019060200180831161351757829003601f168201915b505050505081526020016001820160009054906101000a900473ffffffffffffffffffffffffffffffffffffffff1673ffffffffffffffffffffffffffffffffffffffff1673ffffffffffffffffffffffffffffffffffffffff1681526020016002820180546135a3906149b5565b80601f01602080910402602001604051908101604052809291908181526020018280546135cf906149b5565b801561361c5780601f106135f15761010080835404028352916020019161361c565b820191906000526020600020905b8154815290600101906020018083116135ff57829003601f168201915b50505050508152602001600382018054613635906149b5565b80601f0160208091040260200160405190810160405280929190818152602001828054613661906149b5565b80156136ae5780601f10613683576101008083540402835291602001916136ae565b820191906000526020600020905b81548152906001019060200180831161369157829003601f168201915b505050505081526020016004820180546136c7906149b5565b80601f01602080910402602001604051908101604052809291908181526020018280546136f3906149b5565b80156137405780601f1061371557610100808354040283529160200191613740565b820191906000526020600020905b81548152906001019060200180831161372357829003601f168201915b5050505050815260200160058201548152602001600682015481526020016007820154815260200160088201805480602002602001604051908101604052809291908181526020016000905b828210156138385783829060005260206000200180546137ab906149b5565b80601f01602080910402602001604051908101604052809291908181526020018280546137d7906149b5565b80156138245780601f106137f957610100808354040283529160200191613824565b820191906000526020600020905b81548152906001019060200180831161380757829003601f168201915b50505050508152602001906001019061378c565b505050508152505081526020019060010190613487565b5050505090506138b2565b600067ffffffffffffffff811115613875576138746143b4565b5b6040519080825280602002602001820160405280156138ae57816020015b61389b613dc3565b8152602001906001900390816138935790505b5090505b919050565b600060405180604001604052808473ffffffffffffffffffffffffffffffffffffffff168152602001838152509050600260008573ffffffffffffffffffffffffffffffffffffffff1673ffffffffffffffffffffffffffffffffffffffff16815260200190815260200160002060010181908060018154018082558091505060019003906000526020600020906002020160009091909190915060008201518160000160006101000a81548173ffffffffffffffffffffffffffffffffffffffff021916908373ffffffffffffffffffffffffffffffffffffffff16021790555060208201518160010190805190602001906139b5929190613c10565b505050600060405180604001604052808673ffffffffffffffffffffffffffffffffffffffff168152602001600260008873ffffffffffffffffffffffffffffffffffffffff1673ffffffffffffffffffffffffffffffffffffffff1681526020019081526020016000206000018054613a2e906149b5565b80601f0160208091040260200160405190810160405280929190818152602001828054613a5a906149b5565b8015613aa75780601f10613a7c57610100808354040283529160200191613aa7565b820191906000526020600020905b815481529060010190602001808311613a8a57829003601f168201915b50505050508152509050600260008573ffffffffffffffffffffffffffffffffffffffff1673ffffffffffffffffffffffffffffffffffffffff16815260200190815260200160002060020181908060018154018082558091505060019003906000526020600020906002020160009091909190915060008201518160000160006101000a81548173ffffffffffffffffffffffffffffffffffffffff021916908373ffffffffffffffffffffffffffffffffffffffff1602179055506020820151816001019080519060200190613b80929190613c10565b5050505050505050565b828054613b96906149b5565b90600052602060002090601f016020900481019282613bb85760008555613bff565b82601f10613bd157803560ff1916838001178555613bff565b82800160010185558215613bff579182015b82811115613bfe578235825591602001919060010190613be3565b5b509050613c0c9190613e8d565b5090565b828054613c1c906149b5565b90600052602060002090601f016020900481019282613c3e5760008555613c85565b82601f10613c5757805160ff1916838001178555613c85565b82800160010185558215613c85579182015b82811115613c84578251825591602001919060010190613c69565b5b509050613c929190613e8d565b5090565b828054613ca2906149b5565b90600052602060002090601f016020900481019282613cc45760008555613d12565b82601f10613cd55780548555613d12565b82800160010185558215613d1257600052602060002091601f016020900482015b82811115613d11578254825591600101919060010190613cf6565b5b509050613d1f9190613e8d565b5090565b508054613d2f906149b5565b6000825580601f10613d415750613d60565b601f016020900490600052602060002090810190613d5f9190613e8d565b5b50565b828054828255906000526020600020908101928215613db2579160200282015b82811115613db1578251829080519060200190613da1929190613c10565b5091602001919060010190613d83565b5b509050613dbf9190613eaa565b5090565b60405180610120016040528060608152602001600073ffffffffffffffffffffffffffffffffffffffff168152602001606081526020016060815260200160608152602001600081526020016000815260200160008152602001606081525090565b828054828255906000526020600020908101928215613e7c5760005260206000209182015b82811115613e7b578282908054613e60906149b5565b613e6b929190613c96565b5091600101919060010190613e4a565b5b509050613e899190613eaa565b5090565b5b80821115613ea6576000816000905550600101613e8e565b5090565b5b80821115613eca5760008181613ec19190613d23565b50600101613eab565b5090565b6000604051905090565b600080fd5b600080fd5b600073ffffffffffffffffffffffffffffffffffffffff82169050919050565b6000613f0d82613ee2565b9050919050565b613f1d81613f02565b8114613f2857600080fd5b50565b600081359050613f3a81613f14565b92915050565b600060208284031215613f5657613f55613ed8565b5b6000613f6484828501613f2b565b91505092915050565b60008115159050919050565b613f8281613f6d565b82525050565b6000602082019050613f9d6000830184613f79565b92915050565b600080fd5b600080fd5b600080fd5b60008083601f840112613fc857613fc7613fa3565b5b8235905067ffffffffffffffff811115613fe557613fe4613fa8565b5b60208301915083600182028301111561400157614000613fad565b5b9250929050565b6000806020838503121561401f5761401e613ed8565b5b600083013567ffffffffffffffff81111561403d5761403c613edd565b5b61404985828601613fb2565b92509250509250929050565b600081519050919050565b600082825260208201905092915050565b6000819050602082019050919050565b600081519050919050565b600082825260208201905092915050565b60005b838110156140bb5780820151818401526020810190506140a0565b838111156140ca576000848401525b50505050565b6000601f19601f8301169050919050565b60006140ec82614081565b6140f6818561408c565b935061410681856020860161409d565b61410f816140d0565b840191505092915050565b600061412582613ee2565b9050919050565b6141358161411a565b82525050565b6000819050919050565b61414e8161413b565b82525050565b600081519050919050565b600082825260208201905092915050565b6000819050602082019050919050565b600061418c83836140e1565b905092915050565b6000602082019050919050565b60006141ac82614154565b6141b6818561415f565b9350836020820285016141c885614170565b8060005b8581101561420457848403895281516141e58582614180565b94506141f083614194565b925060208a019950506001810190506141cc565b50829750879550505050505092915050565b600061012083016000830151848203600086015261423482826140e1565b9150506020830151614249602086018261412c565b506040830151848203604086015261426182826140e1565b9150506060830151848203606086015261427b82826140e1565b9150506080830151848203608086015261429582826140e1565b91505060a08301516142aa60a0860182614145565b5060c08301516142bd60c0860182614145565b5060e08301516142d060e0860182614145565b506101008301518482036101008601526142ea82826141a1565b9150508091505092915050565b60006143038383614216565b905092915050565b6000602082019050919050565b600061432382614055565b61432d8185614060565b93508360208202850161433f85614071565b8060005b8581101561437b578484038952815161435c85826142f7565b94506143678361430b565b925060208a01995050600181019050614343565b50829750879550505050505092915050565b600060208201905081810360008301526143a78184614318565b905092915050565b600080fd5b7f4e487b7100000000000000000000000000000000000000000000000000000000600052604160045260246000fd5b6143ec826140d0565b810181811067ffffffffffffffff8211171561440b5761440a6143b4565b5b80604052505050565b600061441e613ece565b905061442a82826143e3565b919050565b600067ffffffffffffffff82111561444a576144496143b4565b5b614453826140d0565b9050602081019050919050565b82818337600083830152505050565b600061448261447d8461442f565b614414565b90508281526020810184848401111561449e5761449d6143af565b5b6144a9848285614460565b509392505050565b600082601f8301126144c6576144c5613fa3565b5b81356144d684826020860161446f565b91505092915050565b6000806000606084860312156144f8576144f7613ed8565b5b600084013567ffffffffffffffff81111561451657614515613edd565b5b614522868287016144b1565b935050602084013567ffffffffffffffff81111561454357614542613edd565b5b61454f868287016144b1565b925050604084013567ffffffffffffffff8111156145705761456f613edd565b5b61457c868287016144b1565b9150509250925092565b60006101208301600083015184820360008601526145a482826140e1565b91505060208301516145b9602086018261412c565b50604083015184820360408601526145d182826140e1565b915050606083015184820360608601526145eb82826140e1565b9150506080830151848203608086015261460582826140e1565b91505060a083015161461a60a0860182614145565b5060c083015161462d60c0860182614145565b5060e083015161464060e0860182614145565b5061010083015184820361010086015261465a82826141a1565b9150508091505092915050565b600060208201905081810360008301526146818184614586565b905092915050565b600081519050919050565b600082825260208201905092915050565b6000819050602082019050919050565b6146be81613f02565b82525050565b60006040830160008301516146dc60008601826146b5565b50602083015184820360208601526146f482826140e1565b9150508091505092915050565b600061470d83836146c4565b905092915050565b6000602082019050919050565b600061472d82614689565b6147378185614694565b935083602082028501614749856146a5565b8060005b8581101561478557848403895281516147668582614701565b945061477183614715565b925060208a0199505060018101905061474d565b50829750879550505050505092915050565b600060208201905081810360008301526147b18184614722565b905092915050565b600081519050919050565b600082825260208201905092915050565b6000819050602082019050919050565b6000604083016000830151848203600086015261480282826140e1565b915050602083015161481760208601826146b5565b508091505092915050565b600061482e83836147e5565b905092915050565b6000602082019050919050565b600061484e826147b9565b61485881856147c4565b93508360208202850161486a856147d5565b8060005b858110156148a657848403895281516148878582614822565b945061489283614836565b925060208a0199505060018101905061486e565b50829750879550505050505092915050565b600060208201905081810360008301526148d28184614843565b905092915050565b600080604083850312156148f1576148f0613ed8565b5b60006148ff85828601613f2b565b925050602061491085828601613f2b565b9150509250929050565b600082825260208201905092915050565b600061493682614081565b614940818561491a565b935061495081856020860161409d565b614959816140d0565b840191505092915050565b6000602082019050818103600083015261497e818461492b565b905092915050565b7f4e487b7100000000000000000000000000000000000000000000000000000000600052602260045260246000fd5b600060028204905060018216806149cd57607f821691505b602082108114156149e1576149e0614986565b5b50919050565b7f5573657220616c726564792068617320616e206163636f756e74210000000000600082015250565b6000614a1d601b8361491a565b9150614a28826149e7565b602082019050919050565b60006020820190508181036000830152614a4c81614a10565b9050919050565b7f55736572206e616d652073686f756c64206e6f7420626520656d707479210000600082015250565b6000614a89601e8361491a565b9150614a9482614a53565b602082019050919050565b60006020820190508181036000830152614ab881614a7c565b9050919050565b7f4e487b7100000000000000000000000000000000000000000000000000000000600052603260045260246000fd5b7f4e487b7100000000000000000000000000000000000000000000000000000000600052601160045260246000fd5b6000614b288261413b565b91507fffffffffffffffffffffffffffffffffffffffffffffffffffffffffffffffff821415614b5b57614b5a614aee565b5b600182019050919050565b6000614b718261413b565b9150614b7c8361413b565b925082821015614b8f57614b8e614aee565b5b828203905092915050565b7f4e487b7100000000000000000000000000000000000000000000000000000000600052603160045260246000fd5b7f55736572206e6f74207265676973746572656421000000000000000000000000600082015250565b6000614bff60148361491a565b9150614c0a82614bc9565b602082019050919050565b60006020820190508181036000830152614c2e81614bf2565b9050919050565b7f43726561746520616e206163636f756e74206669727374000000000000000000600082015250565b6000614c6b60178361491a565b9150614c7682614c35565b602082019050919050565b60006020820190508181036000830152614c9a81614c5e565b9050919050565b7f55736572206973206e6f74207265676973746572656421000000000000000000600082015250565b6000614cd760178361491a565b9150614ce282614ca1565b602082019050919050565b60006020820190508181036000830152614d0681614cca565b9050919050565b7f55736572732063616e6e6f7420616464207468656d6573656c7665732061732060008201527f667269656e647300000000000000000000000000000000000000000000000000602082015250565b6000614d6960278361491a565b9150614d7482614d0d565b604082019050919050565b60006020820190508181036000830152614d9881614d5c565b9050919050565b7f54686573652075736572732061726520616c726561647920667269656e647300600082015250565b6000614dd5601f8361491a565b9150614de082614d9f565b602082019050919050565b60006020820190508181036000830152614e0481614dc8565b905091905056fea26469706673582212207fb535a57ac2e33ebccaa162661901dae01fa2e14336a4952bd85227beae5da464736f6c63430008090033",
  "linkReferences": {},
  "deployedLinkReferences": {}
}